
D0000542171020000002981123456791       0000000CH008419000000000668459CARMEN              CRUZ UREÑA          
D0000542171020000002982123456796       0000000CH008420000000001303967CAROLINA            REINOSO TAVERAS     
D0000542171020000002990222300632019    0000000CH008423000000000492050Sury                Medrano TEST        
D0000542171020000002997222300632019    0000000CH008477000000000450800Sury                Medrano TEST        
D0000542171020000002998123456796       0000000CH008478000000000358000CAROLINA            REINOSO TAVERAS     
D0000542171020000002999123456791       0000000CH008479000000001032587CARMEN              CRUZ UREÑA          
D0000542171020000003012123456796       0000000CH008507000000000130002CAROLINA            REINOSO TAVERAS     
D0000542171020000003034123456796       0000000CH008563000000000729133CAROLINA            REINOSO TAVERAS     
D0000542171020000003041123456797       0000000CH008626000000001024600JOSE                CONTRERAS SANCHEZ   
D0000542171020000003043123456796       0000000CH008628000000000296142CAROLINA            REINOSO TAVERAS     
D0000542171020000003051123456791       0000000CH008658000000001460293CARMEN              CRUZ UREÑA          
D0000542171020000003055123456797       0000000CH008692000000001864500JOSE                CONTRERAS SANCHEZ   
D0000542171020000003056123456796       0000000CH008693000000000399894CAROLINA            REINOSO TAVERAS     
D0000542171020000003062222300632019    0000000CH008730000000001336417Sury                Medrano TEST        