D0000542171020000002981123456791       0000000CH008419000000000668459CARMEN              CRUZ UREÑA          
D0000542171020000002993123456797       0000000CH008426000000000032900JOSE                CONTRERAS SANCHEZ   
D0000542171020000002999123456791       0000000CH008479000000001032587CARMEN              CRUZ UREÑA          
D0000542171020000003016123456799       0000000CH008511000000000267000HILDA               HERNANDEZ           
D0000542171020000003041123456797       0000000CH008626000000001024600JOSE                CONTRERAS SANCHEZ   
D0000542171020000003051123456791       0000000CH008658000000001460293CARMEN              CRUZ UREÑA          
D0000542171020000003055123456797       0000000CH008692000000001864500JOSE                CONTRERAS SANCHEZ   
D0000542171020000003057123456799       0000000CH008694000000000285105HILDA               HERNANDEZ           